:100000000C943A000C9457000C9457000C94570031
:100010000C9457000C9457000C9457000C94570004
:100020000C9457000C9457000C9457000C945700F4
:100030000C9457000C9457000C9457000C945700E4
:100040000C9457000C9457000C9457000C945700D4
:100050000C9457000C9457000C9457000C945700C4
:100060000C9457000C9457000C9457000C945700B4
:100070000C94570011241FBECFEFD4E0DEBFCDBFDC
:1000800011E0A0E0B1E0ECEBF1E102C005900D92CF
:10009000AA3DB107D9F711E0AAEDB1E001C01D9268
:1000A000A13FB107E1F70E94CB070C94DC080C9448
:1000B0000000FC016115710561F480818630B9F0A2
:1000C0008F5F808381818F5F818382818F5F828355
:1000D00008956130710559F49281992341F080812E
:1000E00081508083818181508183915092830895D2
:1000F000CF93DF93EC010E94E20482E00E94B204FD
:10010000882329F060E070E0CE010E94590080E071
:100110000E94B204882359F09A81992341F0888182
:100120008150888389818150898391509A83DF919E
:10013000CF910895FC0182819381009719F4808109
:10014000815005C08130910521F480818F5F8083CB
:1001500008958230910519F4808181500BC083305D
:10016000910519F4808181500DC08430910531F4DE
:1001700080818F5F808381818F5F07C0059731F415
:1001800080818F5F80838181815081830895FC010C
:10019000828193818330910521F0029721F080E3E1
:1001A00003C081E401C081E69181890F0895FB01BC
:1001B000108220ED280F273018F481E090E00DC068
:1001C0002FEB280F273018F484E090E006C02FE9C9
:1001D000280F273028F485E090E093838283822FD4
:1001E00096E0981B91830895CF93DF93EC010E94D2
:1001F000C7000E9411078AE08883898386E090E027
:100200009B838A83DF91CF910895FC018281938142
:100210008630910509F471C030812FEF230F223011
:1002200038F4418141504530F0F5CF010C949A00EB
:10023000311122C08230910569F48181863029F420
:1002400085E0818383E090E00FC08F5F8183CF01E1
:100250000C94F4008330910561F48181811107C011
:1002600081E0818382E090E093838283F0CF8150AC
:10027000EDCF892B61F3D9CF3330A9F48181841775
:1002800021F0861305C0811103C020838F5F1CC03D
:10029000851304C020831382128208958613C5CF6C
:1002A0002083815025C04181411112C085309105C4
:1002B00039F43F5F308381E0818384E090E01BC0AC
:1002C0000397D9F4208381E0818382E090E013C01A
:1002D000463099F48430910539F43F5F308385E0EE
:1002E000818385E090E007C0029739F4208385E0A0
:1002F000818383E090E0938382830895CF93DF939B
:1003000000D000D0CDB7DEB72B833C838A836983CE
:100310000E94D10241E064E08A81782F84E09981D3
:100320000E94300261E02B81822F3C81932F0E943A
:1003300029020F900F900F900F90DF91CF910C94A6
:10034000F40382E391E00E94EF038AE00E94DF035E
:1003500081E090E00E94E50381E090E00C94EA03E4
:10036000FC0183E08083818386E090E09383828335
:100370000895FC0184E0808383E0818382E08283AE
:1003800008951F93CF93DF93EC010E94D10285ED76
:1003900091E00E94D00311E084E00E94B204811138
:1003A00010C00E940A020E94F4030E94E2040E940C
:1003B0000707882389F30E940907803569F71883A6
:1003C000EBCFDF91CF911F910895E1E6F0E080E857
:1003D00080831082A89584B7877F84BFE0E6F0E031
:1003E00080818861808310820895CF93DF93EC0130
:1003F0000E946B059E0140E050E062E17AE780E0F8
:1004000090E00E948C083093DD012093DC01DF91A5
:10041000CF9108958091DA019091DB010E947A05D5
:100420008091DA019091DB012091DC013091DD01B6
:10043000820F931F9093DB018093DA01089541E0CE
:10044000611101C040E0692F0C940106692F0C94E2
:10045000180641E0611101C040E0692F0C940106CB
:100460006F927F928F929F92AF92BF92CF92DF92C4
:10047000EF92FF920F931F93CF93DF931F92CDB70D
:10048000DEB7862EB42E6C01862F992787FD9095B6
:100490008C199109C7FC9395072F112707FD10951B
:1004A0000D191109D7FC139597FD03C0AA24A39435
:1004B00002C0AA24AA9417FD03C09924939402C0F1
:1004C00099249A943C0197FF03C071946194710838
:1004D00017FF03C01195019511096016710694F07C
:1004E0007301F594E794C81409F16B2DC6010E94BD
:1004F0002902E01AF10AF7FE03C0E60CF71CD90C3A
:10050000CA0CF1CF7801F594E794D71679F06B2DEA
:10051000C60179830E942902E618F7087981F7FE5F
:1005200003C0E00EF11ECA0CD90CEFCF6B2DC60133
:100530000F90DF91CF911F910F91FF90EF90DF907F
:10054000CF90BF90AF909F908F907F906F900C94C2
:100550002902FF920F931F93CF93DF93182FF92E49
:10056000062FC72FD42F792F0E9430024D2F612FD5
:100570007C2F812F9F2D0E9430024D2F602F7C2FCA
:10058000802F9F2D0E9430024D2F602F7C2F812FB6
:100590009C2F0E943002DF91CF911F910F91FF900D
:1005A00008950E9441061092110110920C010895C5
:1005B000DF92EF92FF920F931F93CF93DF93E82E7A
:1005C0008B01F62ED12E2091020130910301D0E053
:1005D0002130310599F5D12EDD1AE0910801F09115
:1005E00009018181C0E0D817B8F4E0910801F091C9
:1005F00009018281C81770F42C2F4D2F6E2DCF0169
:100600000E946506682F8C2F800F9D2D0E94290265
:10061000CF5FEBCFDF5FDFCFE0910801F091090101
:100620008281C81740F460E08C2F800F9D2D0E94BE
:100630002902CF5FF1CFDA9430C0DF5FFD2EF00EDC
:10064000E0910801F09109018181C0E0D817A8F478
:10065000E0910801F09109018281C81770F72C2FF1
:100660004D2F6E2DCF010E946506682F8F2D9C2F78
:10067000910F0E942902CF5FEBCFE0910801F0912A
:1006800009018281C81740F460E08F2D9C2F910FE3
:100690000E942902CF5FF1CFF3948F2D9D2DDF9122
:1006A000CF911F910F91FF90EF90DF9008951F93CE
:1006B000CF93DF93182FEC019C2F911B89918823F6
:1006C00049F00E94D802BC019C2F911B653014F4A4
:1006D00077FFF2CF892FDF91CF911F9108950F936C
:1006E0001F93CF93DF93EC019B0110920C01409379
:1006F0000D011092100100910801109109010115DE
:10070000110509F448C0F8018181609106017091DA
:10071000070190E00E945B08BC0180910A01909162
:100720000B010E947808CB016AE070E00E945B0830
:1007300090930F0180930E013093050120930401E3
:1007400040E250E0BE0181E191E00E94CD0880913D
:100750000001909101010197F1F4FE010190002048
:10076000E9F7CF010197F801618170E06F5F7F4F7A
:100770008C1B0E945208815020910201309103018C
:100780002130310511F497E001C095E0981718F475
:100790008EEF80931001DF91CF911F910F910895FB
:1007A00020910201309103012130310511F476E0EE
:1007B00001C070E04FEF60E00E946F03089590E089
:1007C000909307018093060108959093010180930F
:1007D000000108959093030180930201089590937E
:1007E0000901809308010895CF938091DE019091D3
:1007F000DF0101969093DF018093DE0120910E01CD
:1008000030910F018217930708F468C01092DF013E
:100810001092DE01E0910C01F0E0E050FF4F818981
:1008200081110AC080910D01823008F457C08150B7
:1008300080930D0110920C01C0910C018C2F90E05F
:10084000FC01E050FF4F2189222309F447C0209189
:10085000000130910101409110012115310521F075
:100860002130310589F022C0411120C0609104017E
:10087000709105018F5E9E4F0E9457039FEF9C0F62
:10088000980F90930C0112C06091040170910501C2
:1008900020910201309103012130310511F4740FD0
:1008A00001C0641B8F5E9E4F0E9457032091100170
:1008B0002F5F20931001332727FD3095E091080129
:1008C000F0910901818190E0821793073CF4109226
:1008D000100180910C018F5F80930C01CF910C94DB
:1008E0002D0690930B0180930A010E944C0684E12F
:1008F00090E090930701809306010C94D10262303E
:10090000710511F160F46130710551F5FC01FF27AB
:1009100084A19095892384A385A189231EC0633077
:10092000710541F064307105D9F4FC01FF2784A101
:10093000892B10C0FC01FF2784A1892B84A325A14A
:10094000892F8095822309C0FC01FF2784A1292FCC
:100950002095822384A385A1892B85A381E0089516
:1009600080E00895E82FF0E0EE0FFF1FE052FE4F09
:100970008081882321F0818191E0892701C080E076
:1009800081700895E82FF0E0EE0FFF1FE052FE4F58
:100990008081811102C0818101C080E08170089551
:1009A000E82FF0E0EE0FFF1FE052FE4F8081089528
:1009B000E82FF0E0EE0FFF1FE052FE4F908181E044
:1009C000892708954F925F927F928F929F92AF9264
:1009D000BF92CF92DF92EF92FF920F931F93CF932C
:1009E000DF9300D0CDB7DEB750EE452E51E0552E47
:1009F00061EEE62E61E0F62E7EEAA72E71E0B72EBC
:100A0000E6E07E2EF2018081F7018083F5010191FD
:100A100011915F016801DD24F60184A1812E9924E2
:100A200025A130E02821392141E0232B09F440E0C1
:100A300090E088219921892B29F0442341F024E07A
:100A400030E00AC0442331F022E030E005C023E06A
:100A500030E002C021E030E064E070E0C8012983AA
:100A60003A830E947F0462E070E0C8010E947F0424
:100A7000872D8A95F1F7F60183A190E088219921CD
:100A800041E029813A81892B09F040E0F20140835D
:100A9000B901C8010E947F04F2E04F0E511C82E0B0
:100AA000E80EF11CEAEE4E16E1E05E0609F0AACF70
:100AB0000F900F90DF91CF911F910F91FF90EF90CA
:100AC000DF90CF90BF90AF909F908F907F905F907E
:100AD0004F90089508951092800084E080938100E3
:100AE0001092850010928400089580918400909166
:100AF00085000895AC0180918400909185009C014F
:100B0000241B350B283E3340B0F708952091840014
:100B100030918500820F931F0C947A05CF93DF9359
:100B20001F92CDB7DEB79E012F5F3F4F45E068EBC8
:100B300071E00E94A20791E0980F90933101998192
:100B4000915097BD18BC95B5977039F025B5909127
:100B500031019770287F922B95BD298130E0E82FD5
:100B6000F0E0E854FE4FC901008002C0880F991FD1
:100B70000A94E2F70F90DF91CF91089585B3897FB2
:100B800085BB95B5809131018770987F892B85BD94
:100B9000089585B5887F85BD089585B382FB882734
:100BA00080F90895009719F0019741F0089584B5F0
:100BB0006295660F660F607C8F7305C084B56370A5
:100BC0006295607F8F7C682B64BD0895009741F02B
:100BD000019759F484B58E7F84BD84B5826002C0CC
:100BE00084B58C7F84BD81E0089580E0089514BCB5
:100BF00015BC16BC18BC81E090E00E94E60581E0BF
:100C000008958530A0F4673090F421E030E0062E9E
:100C100001C0220F0A94EAF7E82FF0E0E551FE4FF9
:100C2000822F8095908189234111822B80830895A2
:100C3000853088F4673078F4E82FF0E0E551FE4F16
:100C400021E030E0062E01C0220F0A94EAF79081DD
:100C5000922381E009F480E008956091EA01E62F93
:100C6000F0E0E551FE4F80810E94CC068091EA01C0
:100C70008F5F853018F48093EA0108951092EA019D
:100C800008951092EB011092EC011092ED01109278
:100C9000EE011092EF0108950E94AA060C944106FD
:100CA000009789F0FC012381621B67FD09C077274B
:100CB00067FD7095248130E081E0621773070CF0C6
:100CC00080E08170089580E00895CF93DF93FC0168
:100CD000822F309789F19181491770F5228182170F
:100CE00058F52381621B67FD27C0A62FBB27A7FDF0
:100CF000B095C481D0E0AC17BD07F4F4692F0E9411
:100D00005208480F658170E0CD010E945B08DC014C
:100D10001696842F869586958695AE0FBF1FA80FD1
:100D2000B11D2C9130E0477002C0359527954A954A
:100D3000E2F7822F817001C080E0DF91CF910895AA
:100D4000FC01FF2784A1892B84A385A1892B85A37E
:100D500081E00895CF93DF93C7ECD1E08991999119
:100D60000E94A00681E0C53DD807C1F783E090E46A
:100D70000E94A00680E090E80E94A00683E090E137
:100D80000E94A00683E090E80E94A00683E090E223
:100D9000DF91CF910C94A006E091F001F0E0EE0F0E
:100DA000FF1FE354FE4F20813181F901FF2795A1F8
:100DB000932B95A3E7ECF1E020813181D901BB278A
:100DC00080FF07C095962C919597932F909592232D
:100DD00004C095969C919597932B95969C93869598
:100DE000329691E0E53DF90739F7E62FF0E0EE0F96
:100DF000FF1FE354FE4F80819181FC01FF2725A155
:100E0000892F8095822385A36093F00108950C9427
:100E10006E070C948F070C9474070C947A070C944B
:100E200080070E9480070E947A078823E1F38CE202
:100E300091E00197F1F70E946E0781110C94090768
:100E400008950C949607CF93DF9300D01F92CDB7EF
:100E5000DEB780ED90E09A83898388E08B83509A97
:100E6000589A0E94F7058FE690E00E948E0581E077
:100E700090E00E94E60561E070E081E090E00E9471
:100E8000D2050E94BE05CE0101960E9456070F9022
:100E90000F900F90DF91CF9108959C01215031095F
:100EA0003093CD0081508093CC000895CF93DF9391
:100EB000EC01888199810E944D078A819BEF980FF0
:100EC000943008F088E098E19093C9008550880F2D
:100ED0008093CA0081E0DF91CF9108958091C8008E
:100EE000881F8827881F08958091C80085FB882760
:100EF00080F908958091C80086FB882780F90895BD
:100F0000CF93C82F0E9474078823E1F39091C80003
:100F100090649093C800C093CE00CF9108958091C3
:100F2000C80087FFFCCF8091CE000895CF93DF9358
:100F3000EC018991882319F00E948007FACFDF9194
:100F4000CF910895CF93DF93D62FFB0160E070E03F
:100F5000A1E0B0E05E2F5D1B5417B8F4C191BD0154
:100F60000C2E02C0660F771F0A94E2F76F5F7F4F67
:100F700076956795680F791F02C076956795CA9533
:100F8000E2F76F3F710509F028F7F9016083852FBB
:100F9000DF91CF910895CF93DF93CDB7DEB7289738
:100FA0000FB6F894DEBF0FBECDBF0E94E5010E94D0
:100FB0006A058CE291E00E94F5018CE291E00E94CA
:100FC00071040E9423070E94A1011886FF24F39454
:100FD000A12C84E6C82E93E0E92E22E0B22E3AE05E
:100FE000D32E06E010E00E940A02FF20C9F0CE01D5
:100FF00008960E94C1018885811108C0E982EA82B1
:101000001C830B8380E50E94110704C0D982DA8219
:101010001C830B8384E08D83EE82BF82F12CE3CFAF
:101020000E94D102CE0105960E94780089818A3003
:1010300071F48A818A3059F40E940707882339F0B5
:101040000E940907BE016F5F7F4F0E94D700298170
:101050003A814B815C816D817E818F810E947E010E
:101060008B819C81069739F484E00E94B204882326
:1010700011F01C821B828A2D6C2D0E946C0891112C
:1010800008C04D815E816F81CE0101960E940501ED
:10109000A12CA3948981843009F0A5CF1886FF2460
:1010A000F394A1CF002480FD060E660F11F0869503
:1010B000D1F7802D08950024552704C0080E591F2C
:1010C000880F991F009729F076956795B8F37105F9
:1010D000B9F7802D952F0895991B79E004C0991FC9
:1010E000961708F0961B881F7A95C9F78095089582
:1010F000AA1BBB1B51E107C0AA1FBB1FA617B7073E
:1011000010F0A61BB70B881F991F5A95A9F7809559
:101110009095BC01CD010895052E97FB1EF4009417
:101120000E94A30857FD07D00E94AB0807FC03D01C
:101130004EF40C94A30850954095309521953F4F5F
:101140004F4F5F4F089590958095709561957F4FB3
:101150008F4F9F4F0895A1E21A2EAA1BBB1BFD01C2
:101160000DC0AA1FBB1FEE1FFF1FA217B307E40786
:10117000F50720F0A21BB30BE40BF50B661F771FDE
:10118000881F991F1A9469F76095709580959095BE
:101190009B01AC01BD01CF010895FB01DC01415071
:1011A000504048F001900D920020C9F701C01D92F7
:0C11B00041505040E0F70895F894FFCF44
:1011BC00000000000000140000000000000000000F
:1011CC000000000000000000000000000000000013
:1011DC000000000000000000000000000000000003
:1011EC000001010305203B0200009220EB737D5FA0
:1011FC00DE3DA552EA7A14004A222229BA2ED005E5
:10120C000014C0010020A4126A2B9A74A372A33894
:10121C00ED498F38CE2AA712AA2AAE491004101411
:10122C005444380E11152A250000EA5BEB3A4F7234
:10123C006B3BCF73CF134F7AED5B9774247B5D566A
:10124C004972FD5B6F5B6F7BEF136F7FEF57CE388F
:10125C0097246D7B6D2BED5FAD5AAD24A772038087
:10126C000340032000800310000306080A0340001B
:10127C0080031003800320004000200010000800B1
:0A128C000400020001504F4E47001D
:00000001FF
