:100000000C943A000C9457000C9457000C94570031
:100010000C9457000C9457000C9457000C94570004
:100020000C9457000C9457000C9457000C945700F4
:100030000C9457000C9457000C9457000C945700E4
:100040000C9457000C9457000C9457000C945700D4
:100050000C9457000C9457000C9457000C945700C4
:100060000C9457000C9457000C9457000C945700B4
:100070000C94570011241FBECFEFD4E0DEBFCDBFDC
:1000800011E0A0E0B1E0EAE9FDE002C005900D92C8
:10009000A435B107D9F711E0A4E5B1E001C01D9284
:1000A000AB36B107E1F70E94FE050C94CB060C9429
:1000B0000000FC016115710561F480818630B9F0A2
:1000C0008F5F808381818F5F818382818F5F828355
:1000D00008956130710559F49281992341F080812E
:1000E00081508083818181508183915092830895D2
:1000F000CF93DF93EC010E944C0482E00E941C0429
:10010000882329F060E070E0CE010E94590080E071
:100110000E941C04882359F09A81992341F0888118
:100120008150888389818150898391509A83DF919E
:10013000CF910895FC012081222379F1318133236D
:1001400009F45BC0363009F441C0233009F440C0E3
:1001500082819381009711F4215004C08130910570
:1001600019F42F5F208308958230910511F42150F6
:100170000CC08330910529F4215020833150318304
:1001800008958430910521F42F5F20833F5FF7CFDE
:10019000059709F060C02F5FF0CF828193810097AF
:1001A00029F481E0808381E090E052C082309105A3
:1001B00029F481E0808381818F5F29C0039709F052
:1001C0004AC081E080838181815036C0233061F54F
:1001D000341305C082E080833F5F318322C0351332
:1001E00005C082E08083138212820895361333C0E3
:1001F00082E080833150318329C0233049F38281EA
:1002000093818530910539F42F5F208381E08183CC
:1002100084E090E01DC00397F1F42150208381E039
:10022000818382E090E014C08281938184309105C3
:1002300039F42F5F208385E0818385E090E008C05A
:10024000029749F42150208385E0818383E090E088
:100250009383828308950895CF93DF9300D000D0D5
:10026000CDB7DEB72B833C838A8369830E943B0230
:1002700041E064E08A81782F84E099810E949A01AC
:1002800061E02B81822F3C81932F0E9493010F907C
:100290000F900F900F90DF91CF910C945E03E1E6E9
:1002A000F0E080E880831082A89584B7877F84BFC0
:1002B000E0E6F0E080818861808310820895CF932A
:1002C000DF93EC010E94D5049E0140E050E062E122
:1002D0007AE780E090E00E947B06309357012093FC
:1002E0005601DF91CF91089580915401909155016D
:1002F0000E94E4048091540190915501209156018F
:1003000030915701820F931F9093550180935401B0
:10031000089541E0611101C040E0692F0C94F80498
:10032000692F0C940F0541E0611101C040E0692F75
:100330000C94F8046F927F928F929F92AF92BF922B
:10034000CF92DF92EF92FF920F931F93CF93DF93A1
:100350001F92CDB7DEB7862EB42E6C01862F99275B
:1003600087FD90958C199109C7FC9395072F11274C
:1003700007FD10950D191109D7FC139597FD03C0C2
:10038000AA24A39402C0AA24AA9417FD03C0992406
:10039000939402C099249A943C0197FF03C07194EE
:1003A0006194710817FF03C011950195110960163A
:1003B000710694F07301F594E794C81409F16B2D5C
:1003C000C6010E949301E01AF10AF7FE03C0E60C91
:1003D000F71CD90CCA0CF1CF7801F594E794D71625
:1003E00079F06B2DC60179830E949301E618F70816
:1003F0007981F7FE03C0E00EF11ECA0CD90CEFCFD5
:100400006B2DC6010F90DF91CF911F910F91FF903F
:10041000EF90DF90CF90BF90AF909F908F907F90A4
:100420006F900C949301FF920F931F93CF93DF93E0
:10043000182FF92E062FC72FD42F792F0E949A013B
:100440004D2F612F7C2F812F9F2D0E949A014D2FC0
:10045000602F7C2F802F9F2D0E949A014D2F602F9F
:100460007C2F812F9C2F0E949A01DF91CF911F91A9
:100470000F91FF9008950E9438051092110110927B
:100480000C010895DF92EF92FF920F931F93CF9389
:10049000DF93E82E8B01F62ED12E209102013091B0
:1004A0000301D0E02130310599F5D12EDD1AE0911C
:1004B0000801F09109018181C0E0D817B8F4E091FA
:1004C0000801F09109018281C81770F42C2F4D2F7B
:1004D0006E2DCF010E945C05682F8C2F800F9D2D03
:1004E0000E949301CF5FEBCFDF5FDFCFE091080188
:1004F000F09109018281C81740F460E08C2F800FD1
:100500009D2D0E949301CF5FF1CFDA9430C0DF5F61
:10051000FD2EF00EE0910801F09109018181C0E00B
:10052000D817A8F4E0910801F09109018281C81759
:1005300070F72C2F4D2F6E2DCF010E945C05682F78
:100540008F2D9C2F910F0E949301CF5FEBCFE091F5
:100550000801F09109018281C81740F460E08F2DF5
:100560009C2F910F0E949301CF5FF1CFF3948F2DB9
:100570009D2DDF91CF911F910F91FF90EF90DF9014
:1005800008951F93CF93DF93182FEC019C2F911B9D
:100590008991882349F00E944202BC019C2F911B43
:1005A000653014F477FFF2CF892FDF91CF911F913F
:1005B00008950F931F93CF93DF93EC019B0110924B
:1005C0000C0140930D01109210010091080110914F
:1005D00009010115110509F448C0F80181816091F4
:1005E00006017091070190E00E944A06BC018091CB
:1005F0000A0190910B010E946706CB016AE070E04E
:100600000E944A0690930F0180930E0130930501DA
:100610002093040140E250E0BE0181E191E00E949C
:10062000BC0680910001909101010197F1F4FE0157
:1006300001900020E9F7CF010197F801618170E096
:100640006F5F7F4F8C1B0E944106815020910201F9
:10065000309103012130310511F497E001C095E09C
:10066000981718F48EEF80931001DF91CF911F91AE
:100670000F9108952091020130910301213031053D
:1006800011F476E001C070E04FEF60E00E94D90203
:10069000089590E090930701809306010895909348
:1006A000010180930001089590930301809302015A
:1006B000089590930901809308010895CF93809144
:1006C00058019091590101969093590180935801D6
:1006D00020910E0130910F018217930708F468C032
:1006E0001092590110925801E0910C01F0E0E05095
:1006F000FF4F818981110AC080910D01823008F479
:1007000057C0815080930D0110920C01C0910C01D3
:100710008C2F90E0FC01E050FF4F2189222309F447
:1007200047C0209100013091010140911001211535
:10073000310521F02130310589F022C0411120C05E
:1007400060910401709105018F5E9E4F0E94C1026D
:100750009FEF9C0F980F90930C0112C060910401C1
:100760007091050120910201309103012130310582
:1007700011F4740F01C0641B8F5E9E4F0E94C10272
:10078000209110012F5F20931001332727FD309512
:10079000E0910801F0910901818190E082179307AF
:1007A0003CF41092100180910C018F5F80930C013A
:1007B000CF910C94240590930B0180930A010E9421
:1007C000430584E190E090930701809306010C9427
:1007D0003B026230710511F160F46130710551F531
:1007E000FC01FF2784A19095892384A385A18923F7
:1007F0001EC06330710541F064307105D9F4FC010D
:10080000FF2784A1892B10C0FC01FF2784A1892B1D
:1008100084A325A1892F8095822309C0FC01FF278D
:1008200084A1292F2095822384A385A1892B85A3C8
:1008300081E0089580E00895E82FF0E0EE0FFF1FBB
:10084000E65AFE4F8081882321F0818191E089273B
:1008500001C080E081700895E82FF0E0EE0FFF1FE7
:10086000E65AFE4F8081811102C0818101C080E083
:1008700081700895E82FF0E0EE0FFF1FE65AFE4F5B
:1008800080810895E82FF0E0EE0FFF1FE65AFE4F3B
:10089000908181E0892708954F925F927F928F9295
:1008A0009F92AF92BF92CF92DF92EF92FF920F93FF
:1008B0001F93CF93DF9300D0CDB7DEB75AE5452E17
:1008C00051E0552E6BE5E62E61E0F62E71E3A72E82
:1008D00071E0B72EE6E07E2EF2018081F701808381
:1008E000F501019111915F016801DD24F60184A1F8
:1008F000812E992425A130E02821392141E0232BA4
:1009000009F440E090E088219921892B29F04423C3
:1009100041F024E030E00AC0442331F022E030E02E
:1009200005C023E030E002C021E030E064E070E088
:10093000C80129833A830E94E90362E070E0C8019C
:100940000E94E903872D8A95F1F7F60183A190E0D3
:100950008821992141E029813A81892B09F040E0E1
:10096000F2014083B901C8010E94E903F2E04F0E91
:10097000511C82E0E80EF11CE4E64E16E1E05E0652
:1009800009F0AACF0F900F90DF91CF911F910F9197
:10099000FF90EF90DF90CF90BF90AF909F908F909F
:1009A0007F905F904F90089508951092800084E0AA
:1009B00080938100109285001092840008958091A8
:1009C0008400909185000895AC01809184009091FD
:1009D00085009C01241B350B283E3340B0F7089559
:1009E0002091840030918500820F931F0C94E404C1
:1009F0008530A0F4673090F421E030E0062E01C08D
:100A0000220F0A94EAF7E82FF0E0EB59FE4F822F0D
:100A10008095908189234111822B808308958530B0
:100A200088F4673078F4E82FF0E0EB59FE4F21E0CE
:100A300030E0062E01C0220F0A94EAF7908192233B
:100A400081E009F480E0089560916401E62FF0E010
:100A5000EB59FE4F80810E94C305809164018F5F36
:100A6000853018F48093640108951092640108950C
:100A70001092650110926601109267011092680150
:100A80001092690108950E94A1050C943805009701
:100A900089F0FC012381621B67FD09C0772767FD90
:100AA0007095248130E081E0621773070CF080E0DC
:100AB0008170089580E00895CF93DF93FC01822F29
:100AC000309789F19181491770F52281821758F585
:100AD0002381621B67FD27C0A62FBB27A7FDB0950A
:100AE000C481D0E0AC17BD07F4F4692F0E94410621
:100AF000480F658170E0CD010E944A06DC01169620
:100B0000842F869586958695AE0FBF1FA80FB11DC1
:100B10002C9130E0477002C0359527954A95E2F751
:100B2000822F817001C080E0DF91CF910895FC0198
:100B3000FF2784A1892B84A385A1892B85A381E02C
:100B40000895CF93DF93C5E4D1E0899199910E94F4
:100B5000970581E0C335D807C1F783E090E40E9490
:100B6000970580E090E80E94970583E090E10E945D
:100B7000970583E090E80E94970583E090E2DF917B
:100B8000CF910C949705E0916A01F0E0EE0FFF1F02
:100B9000E55CFE4F20813181F901FF2795A1932B60
:100BA00095A3E5E4F1E020813181D901BB2780FFE5
:100BB00007C095962C919597932F9095922304C0FA
:100BC00095969C919597932B95969C9386953296A6
:100BD00091E0E335F90739F7E62FF0E0EE0FFF1F5C
:100BE000E55CFE4F80819181FC01FF2725A1892FC3
:100BF0008095822385A360936A010895CF93DF9344
:100C0000CDB7DEB727970FB6F894DEBF0FBECDBFC6
:100C10000E944F010E94D4048CEF90E00E945F017B
:100C20008CEF90E00E94DB0384E08D8393E09E8351
:100C300022E02F8399838A8383E090E09C838B83D7
:100C400010E004E50E947401CE0105960E94780030
:100C500029813A814B815C816D817E818F810E94E7
:100C60002C01812F602F0E945B06911108C04D81DD
:100C70005E816F81CE0101960E949A0010E01F5F95
:100C8000E1CF002480FD060E660F11F08695D1F7A6
:100C9000802D08950024552704C0080E591F880F81
:100CA000991F009729F076956795B8F37105B9F704
:100CB000802D952F0895991B79E004C0991F9617F0
:100CC00008F0961B881F7A95C9F780950895AA1B8E
:100CD000BB1B51E107C0AA1FBB1FA617B70710F027
:100CE000A61BB70B881F991F5A95A9F78095909559
:100CF000BC01CD010895052E97FB1EF400940E94BF
:100D0000920657FD07D00E949A0607FC03D04EF4C6
:100D10000C94920650954095309521953F4F4F4F3A
:100D20005F4F089590958095709561957F4F8F4F97
:100D30009F4F0895A1E21A2EAA1BBB1BFD010DC0F7
:100D4000AA1FBB1FEE1FFF1FA217B307E407F5077B
:100D500020F0A21BB30BE40BF50B661F771F881F57
:100D6000991F1A9469F760957095809590959B01ED
:100D7000AC01BD01CF010895FB01DC0141505040A1
:100D800048F001900D920020C9F701C01D9241501A
:0A0D90005040E0F70895F894FFCFFB
:100D9A000000000000001400000000000000000035
:100DAA000000000000000000000000000000000039
:100DBA000000000000000000000000000000000029
:100DCA0000038003400320008003100340008003D7
:100DDA0010038003200040002000100008000400D7
:040DEA000200010002
:00000001FF
