:100000000C943A000C9457000C9457000C94570031
:100010000C9457000C9457000C9457000C94570004
:100020000C9457000C9457000C9457000C945700F4
:100030000C9457000C9457000C9457000C945700E4
:100040000C9457000C9457000C9457000C945700D4
:100050000C9457000C9457000C9457000C945700C4
:100060000C9457000C9457000C9457000C945700B4
:100070000C94570011241FBECFEFD4E0DEBFCDBFDC
:1000800011E0A0E0B1E0EEEAFEE002C005900D92C2
:10009000A43DB107D9F711E0A4EDB1E001C01D9274
:1000A000AB3EB107E1F70E9465060C9455070C942E
:1000B0000000FC016115710561F480818630B9F0A2
:1000C0008F5F808381818F5F818382818F5F828355
:1000D00008956130710559F49281992341F080812E
:1000E00081508083818181508183915092830895D2
:1000F000CF93DF93EC010E94B30482E00E9483045B
:10010000882329F060E070E0CE010E94590080E071
:100110000E948304882359F09A81992341F08881B1
:100120008150888389818150898391509A83DF919E
:10013000CF910895FC0182819381009719F4808109
:10014000815005C08130910521F480818F5F8083CB
:1001500008958230910519F4808181500BC083305D
:10016000910519F4808181500DC08430910531F4DE
:1001700080818F5F808381818F5F07C0059731F415
:1001800080818F5F80838181815081830895FC010C
:100190002081222359F0A181AA2309F45DC0A63051
:1001A000F1F02330F9F0CF010C949A008281938111
:1001B000009729F481E0808381E090E078C082306C
:1001C000910529F481E0808381818F5F4FC003977F
:1001D00009F070C081E08083818181505CC0233050
:1001E00009F051C0828193818130910561F4A41797
:1001F00029F1A51305C082E080831382128208953D
:10020000A613D1CF24C08430910569F4A517B1F0AD
:10021000A61789F38A2F90E070E061507109861764
:10022000970709F614C0059709F044C02A2F30E05B
:10023000842F90E001962817390729F482E0808303
:10024000AF5FA1831DC0A417B1F2A513ACCF82E0AC
:100250008083A150A18329C0233021F28281938120
:100260008530910539F42F5F208381E0818384E01C
:1002700090E01DC00397F1F42150208381E0818339
:1002800082E090E014C0828193818430910539F43A
:100290002F5F208385E0818385E090E008C002978E
:1002A00049F42150208385E0818383E090E09383AB
:1002B000828308950895643019F481E0FA018083FF
:1002C0000895CF93DF9300D000D0CDB7DEB72B8356
:1002D0003C838A8369830E94A20241E064E08A81B0
:1002E000782F84E099810E94010261E02B81822FA6
:1002F0003C81932F0E94FA010F900F900F900F9066
:10030000DF91CF910C94C50381E391E00E94C0037B
:100310008AE00E94B00381E090E00E94B60381E091
:1003200090E00C94BB03FC01DB0184E08C9383E040
:1003300011968C93119782E012968C93108285E02F
:1003400081831382128208958FEC91E00E94A103B1
:1003500084E00E948304811107C00E94DB010E9497
:10036000C5030E94B304F4CF08950895E1E6F0E0D8
:1003700080E880831082A89584B7877F84BFE0E6F9
:10038000F0E080818861808310820895CF93DF93AD
:10039000EC010E943C059E0140E050E062E17AE7FA
:1003A00080E090E00E9405073093D7012093D601AA
:1003B000DF91CF9108958091D4019091D5010E9451
:1003C0004B058091D4019091D5012091D6013091B7
:1003D000D701820F931F9093D5018093D401089584
:1003E00041E0611101C040E0692F0C945F05692F65
:1003F0000C94760541E0611101C040E0692F0C9436
:100400005F056F927F928F929F92AF92BF92CF9231
:10041000DF92EF92FF920F931F93CF93DF931F9280
:10042000CDB7DEB7862EB42E6C01862F992787FDB7
:1004300090958C199109C7FC9395072F112707FDFB
:1004400010950D191109D7FC139597FD03C0AA2427
:10045000A39402C0AA24AA9417FD03C099249394DC
:1004600002C099249A943C0197FF03C0719461944F
:10047000710817FF03C011950195110960167106E7
:1004800094F07301F594E794C81409F16B2DC6013B
:100490000E94FA01E01AF10AF7FE03C0E60CF71C0D
:1004A000D90CCA0CF1CF7801F594E794D71679F0FE
:1004B0006B2DC60179830E94FA01E618F70879814D
:1004C000F7FE03C0E00EF11ECA0CD90CEFCF6B2D66
:1004D000C6010F90DF91CF911F910F91FF90EF9088
:1004E000DF90CF90BF90AF909F908F907F906F9054
:1004F0000C94FA01FF920F931F93CF93DF93182F61
:10050000F92E062FC72FD42F792F0E9401024D2FCD
:10051000612F7C2F812F9F2D0E9401024D2F602F74
:100520007C2F802F9F2D0E9401024D2F602F7C2F4A
:10053000812F9C2F0E940102DF91CF911F910F917B
:10054000FF9008950E949F051092110110920C01D6
:100550000895DF92EF92FF920F931F93CF93DF9353
:10056000E82E8B01F62ED12E20910201309103014D
:10057000D0E02130310599F5D12EDD1AE091080146
:10058000F09109018181C0E0D817B8F4E091080129
:10059000F09109018281C81770F42C2F4D2F6E2D18
:1005A000CF010E94C305682F8C2F800F9D2D0E94C4
:1005B000FA01CF5FEBCFDF5FDFCFE0910801F09171
:1005C00009018281C81740F460E08C2F800F9D2DB7
:1005D0000E94FA01CF5FF1CFDA9430C0DF5FFD2EC9
:1005E000F00EE0910801F09109018181C0E0D81777
:1005F000A8F4E0910801F09109018281C81770F711
:100600002C2F4D2F6E2DCF010E94C305682F8F2DEB
:100610009C2F910F0E94FA01CF5FEBCFE091080170
:10062000F09109018281C81740F460E08F2D9C2F62
:10063000910F0E94FA01CF5FF1CFF3948F2D9D2D82
:10064000DF91CF911F910F91FF90EF90DF90089570
:100650001F93CF93DF93182FEC019C2F911B89914F
:10066000882349F00E94A902BC019C2F911B653090
:1006700014F477FFF2CF892FDF91CF911F91089566
:100680000F931F93CF93DF93EC019B0110920C010A
:1006900040930D0110921001009108011091090181
:1006A0000115110509F448C0F80181816091060126
:1006B0007091070190E00E94D406BC0180910A016C
:1006C00090910B010E94F106CB016AE070E00E945C
:1006D000D40690930F0180930E013093050120936F
:1006E000040140E250E0BE0181E191E00E94460732
:1006F00080910001909101010197F1F4FE010190B8
:100700000020E9F7CF010197F801618170E06F5F88
:100710007F4F8C1B0E94CB068150209102013091AB
:1007200003012130310511F497E001C095E09817DD
:1007300018F48EEF80931001DF91CF911F910F91EC
:10074000089520910201309103012130310511F407
:1007500076E001C070E04FEF60E00E944003089532
:1007600090E0909307018093060108959093010112
:1007700080930001089590930301809302010895EE
:1007800090930901809308010895CF938091D80137
:100790009091D90101969093D9018093D80120912D
:1007A0000E0130910F018217930708F468C0109270
:1007B000D9011092D801E0910C01F0E0E050FF4F18
:1007C000818981110AC080910D01823008F457C0DF
:1007D000815080930D0110920C01C0910C018C2F5F
:1007E00090E0FC01E050FF4F2189222309F447C02B
:1007F0002091000130910101409110012115310536
:1008000021F02130310589F022C0411120C06091D2
:100810000401709105018F5E9E4F0E9428039FEF97
:100820009C0F980F90930C0112C06091040170917D
:10083000050120910201309103012130310511F4AD
:10084000740F01C0641B8F5E9E4F0E94280320918D
:1008500010012F5F20931001332727FD3095E09181
:100860000801F0910901818190E0821793073CF41F
:100870001092100180910C018F5F80930C01CF9139
:100880000C948B0590930B0180930A010E94AA059A
:1008900084E190E090930701809306010C94A202FA
:1008A0006230710511F160F46130710551F5FC01A0
:1008B000FF2784A19095892384A385A189231EC045
:1008C0006330710541F064307105D9F4FC01FF27F4
:1008D00084A1892B10C0FC01FF2784A1892B84A34C
:1008E00025A1892F8095822309C0FC01FF2784A1BF
:1008F000292F2095822384A385A1892B85A381E0BC
:10090000089580E00895E82FF0E0EE0FFF1FE65213
:10091000FE4F8081882321F0818191E0892701C0E9
:1009200080E081700895E82FF0E0EE0FFF1FE6529F
:10093000FE4F8081811102C0818101C080E0817001
:100940000895E82FF0E0EE0FFF1FE652FE4F808182
:100950000895E82FF0E0EE0FFF1FE652FE4F908162
:1009600081E0892708954F925F927F928F929F92A4
:10097000AF92BF92CF92DF92EF92FF920F931F93AD
:10098000CF93DF9300D0CDB7DEB75AED452E51E0BF
:10099000552E6BEDE62E61E0F62E7DEAA72E71E076
:1009A000B72EE6E07E2EF2018081F7018083F5010B
:1009B000019111915F016801DD24F60184A1812E6E
:1009C000992425A130E02821392141E0232B09F485
:1009D00040E090E088219921892B29F0442341F0BF
:1009E00024E030E00AC0442331F022E030E005C0CA
:1009F00023E030E002C021E030E064E070E0C801B4
:100A000029833A830E94500462E070E0C8010E948A
:100A10005004872D8A95F1F7F60183A190E0882193
:100A2000992141E029813A81892B09F040E0F201C6
:100A30004083B901C8010E945004F2E04F0E511CDE
:100A400082E0E80EF11CE4EE4E16E1E05E0609F0ED
:100A5000AACF0F900F90DF91CF911F910F91FF9030
:100A6000EF90DF90CF90BF90AF909F908F907F904E
:100A70005F904F90089508951092800084E08093D5
:100A80008100109285001092840008958091840066
:100A9000909185000895AC0180918400909185002B
:100AA0009C01241B350B283E3340B0F7089520915C
:100AB000840030918500820F931F0C944B05853084
:100AC000A0F4673090F421E030E0062E01C0220F40
:100AD0000A94EAF7E82FF0E0EB51FE4F822F809561
:100AE000908189234111822B80830895853088F479
:100AF000673078F4E82FF0E0EB51FE4F21E030E072
:100B0000062E01C0220F0A94EAF79081922381E019
:100B100009F480E008956091E401E62FF0E0EB51E4
:100B2000FE4F80810E942A068091E4018F5F85300C
:100B300018F48093E40108951092E401089510924E
:100B4000E5011092E6011092E7011092E80110927F
:100B5000E90108950E9408060C949F05009789F00A
:100B6000FC012381621B67FD09C0772767FD709533
:100B7000248130E081E0621773070CF080E081701F
:100B8000089580E00895CF93DF93FC01822F309782
:100B900089F19181491770F52281821758F52381D7
:100BA000621B67FD27C0A62FBB27A7FDB095C48198
:100BB000D0E0AC17BD07F4F4692F0E94CB06480FB4
:100BC000658170E0CD010E94D406DC011696842F69
:100BD000869586958695AE0FBF1FA80FB11D2C91E7
:100BE00030E0477002C0359527954A95E2F7822F8D
:100BF000817001C080E0DF91CF910895FC01FF2753
:100C000084A1892B84A385A1892B85A381E00895E4
:100C1000CF93DF93C1ECD1E0899199910E94FE05B9
:100C200081E0CF3CD807C1F783E090E40E94FE0545
:100C300080E090E80E94FE0583E090E10E94FE05BE
:100C400083E090E80E94FE0583E090E2DF91CF917F
:100C50000C94FE05E091EA01F0E0EE0FFF1FE9546D
:100C6000FE4F20813181F901FF2795A1932B95A398
:100C7000E1ECF1E020813181D901BB2780FF07C081
:100C800095962C919597932F9095922304C09596C5
:100C90009C919597932B95969C938695329691E08F
:100CA000EF3CF90739F7E62FF0E0EE0FFF1FE954AC
:100CB000FE4F80819181FC01FF2725A1892F80951E
:100CC000822385A36093EA010895CF93DF93CDB784
:100CD000DEB728970FB6F894DEBF0FBECDBF0E94D7
:100CE000B6010E943B058CE291E00E94C6018CE2B5
:100CF00091E00E9442040E94840184E08D8383E09D
:100D00008E8392E09F83898385E08A8383E090E0ED
:100D10009C838B8381E010E004E694E0F92E23E0CD
:100D2000E22E32E0D32E45E0C42E88870E94DB01FC
:100D30008885882361F00E94A2020E94A401FD829E
:100D4000EE82DF821982CA821C821B8222C00E942C
:100D5000A202CE0105960E94780029813A814B813A
:100D60005C816D817E818F810E946101812F602F66
:100D70000E94E506911108C04D815E816F81CE0110
:100D800001960E94C70010E01F5F81E099819430B6
:100D900061F280E0CACF002480FD060E660F11F0DC
:100DA0008695D1F7802D08950024552704C0080E9C
:100DB000591F880F991F009729F076956795B8F30A
:100DC0007105B9F7802D952F0895991B79E004C01E
:100DD000991F961708F0961B881F7A95C9F780957A
:100DE0000895AA1BBB1B51E107C0AA1FBB1FA61772
:100DF000B70710F0A61BB70B881F991F5A95A9F7C4
:100E000080959095BC01CD010895052E97FB1EF4A9
:100E100000940E941C0757FD07D00E94240707FC7E
:100E200003D04EF40C941C075095409530952195B5
:100E30003F4F4F4F5F4F0895909580957095619506
:100E40007F4F8F4F9F4F0895A1E21A2EAA1BBB1B05
:100E5000FD010DC0AA1FBB1FEE1FFF1FA217B30786
:100E6000E407F50720F0A21BB30BE40BF50B661F9C
:100E7000771F881F991F1A9469F760957095809560
:100E800090959B01AC01BD01CF010895FB01DC01F0
:100E90004150504048F001900D920020C9F701C028
:0E0EA0001D9241505040E0F70895F894FFCFA6
:100EAE000000000000001400000000000000000020
:100EBE000000000000000000000000000000000024
:100ECE000000000000000000000000000000000014
:100EDE0000010305203B0200009220EB737D5FDED4
:100EEE003DA552EA7A14004A222229BA2ED00500D4
:100EFE0014C0010020A4126A2B9A74A372A338EDB9
:100F0E00498F38CE2AA712AA2AAE491004101454BB
:100F1E0044380E11152A250000EA5BEB3A4F726B2E
:100F2E003BCF73CF134F7AED5B9774247B5D56499D
:100F3E0072FD5B6F5B6F7BEF136F7FEF57CE389752
:100F4E00246D7B6D2BED5FAD5AAD24A7720380032C
:100F5E004003200080031003400080031003800331
:100F6E002000400020001000080004000200015084
:040F7E004F4E47008B
:00000001FF
